:400000000080002011000000B1050000B105000008B5044B1A6803F53F5302331A6000F0CFFA00BFFA46004010B5054C237833B9044B13B10448AFF300800123237010BD42
:400040004881FF1F000000005C120000084B10B51BB108490848AFF300800848036803B910BD074B002BFBD0BDE81040184700BF000000004C81FF1F5C120000C880FF1F26
:400080000000000010B562B600F046FB00F00EFC00F080FC494800F059FB00F08FFB0028FBD0474C00232360012000F0A1F8606000F044F94FF4FA6000F0DCFA00F0FCF873
:4000C000012323723F4800F041FB32E0012000F08FF83B4B5B680433984207DD384A1368013313600A2000F0DBFA14E0344B1B680A2B0ADD324C0023237200F005F9324869
:4001000000F024FB0123637217E000222C4B1A602E4800F01BFB022000F06AF8312805DC00F0F2F82A4800F011FB06E01E2000F0A1FA234B1B7A002BC8D1214B5B7A002B59
:40014000ABD04FF47A7000F095FA224800F0FEFA00F0E8F8204800F0F9FA4FF4FA7000F089FA00F0BDF81D4800F0F0FA4FF47A7000F080FA00F0C8F800F0DAF8184800F08E
:40018000E5FA4FF4FA7000F075FA00F0A9F8154800F0DCFA4FF47A7000F06CFA00F0B4F84FF47A7000F066FA00F0C8F80E4800F0CDFA0022024B5A726FE700BF6012000085
:4001C0006481FF1F80120000A8120000C0120000D4120000FC1200001C1300003413000048130000601300007C1300000000000010B5012802D0022831D051E0002000F0EB
:40020000E5FA022000F04CFA012000F0DFFA0A2000F046FA002000F0D9FA00F0E3FA0128FBD1002416E001340A2000F039FA00F0D9FA78B9204600F031FD1BA3D3E90023ED
:4002400000F0DEFB1AA3D3E9002300F0B7FE00F09DFF10BD00F0C6FA0028E4D110BD002000F0A6FB022000F01BFA012000F0A0FB0A2000F015FA002000F09AFB00F0A4FBE0
:400280000128FBD1012406E001340A2000F008FA00F09AFB30B100F097FB0028F4D110BD002010BD204610BDA779C7293A9206408D28ED0DBEB0124008B5074800F046FA5E
:4002C000064B187800F0A8FA002000F051FA012000F05AFA08BD00BF8C130000CC80FF1F08B5074800F032FA064B187800F094FA012000F03DFA002000F046FA08BD00BF9B
:40030000A8130000CC80FF1F08B5054800F01EFA002000F02DFA002000F036FA08BD00BFC413000008B54FF47A7000F0E1FA08BD08B54FF4FA6000F0DBFA08BD08B540F267
:40034000DC5000F0D5FA08BDFEE700BFF0B40022174611E050F82760F3B226F0FF0608E001EB420511F812406D78A5550132013BDBB2002BF4D10137162FEBD9F0BC7047A1
:40038000064B1B78DBB203F00701054A11701B09013213704422034B1A707047CF0100496E5800407658004008B50A46002100F04CFF08BD38B51722294B1A801823294AF5
:4003C00013703321023211800232137040F2DF1102321180023213700222234B1A7008224FF040231A70032103F5007319701F4B1B78DBB21E490B701E4B1A8041F251226D
:40040000023B1A80002419250CE01B4B1B7803F0010343EA440404F003044FF4F07000F0DBFA013D0DB1032CEFD115B90320FFF78BFF124B4FF480721A8007221A70002272
:400440000F490A704820023108701A700222033B1A700C4A137843F00703137038BD00BF80400040824000400043004008010049A1460040224200402542004004400040FF
:4004800006400040A243004008B500F0D3FE08BD38B572B6354A137843F00403137000240CE0334D630019194A0011462A44084691882858FFF778FF0134E4B2082CF0D922
:4004C00000240BE02A49A3001819420088188022C16B806BFFF7D8FF0134E4B2002CF1D024494FF09040FFF731FF234A137843F0020313701032137843F0020313701F4C3E
:40050000237843F040032370A2F58632513A137843F0100313700A2219491A48FFF7B4FF082219491948FFF7AFFF082218491948FFF7AAFF082218491848FFF7A5FF184A4D
:40054000137843F008031370164D61232B70FFF731FF81232B700122134B1A70FFF710FF0E2221461148FFF78FFF38BDE8460040F41300005C00004803500140A0430040FF
:400580004C050048C0510040580500481251004060050048225100406805004832510040224300400048004004000840B043004008B500F013FE03680C2B00D1FEE7FEE78A
:4005C00008B5104E104D16E029686B68AC68002204E051F8040B43F8040B0432A242F8D1E868002203E0002143F8041B04328242F9D11035013E002EE6D100F0F5FDFFF7B5
:4006000041FDFEE7010000005C14000008B5104A104B1A60104A136843F40073136000230AE0032B03D80D4A52F8231000E00C490C4A42F8231001332F2BF2D90A4B1A7826
:400640000A4B1A70074A0A4B1A60FFF721FF08BD0004FA050CED00E014ED00E000000000B10500000080FF1FBC760040C080FF1F08ED00E010B5044605E0084B186800F033
:40068000ABF9A4F50044B4F5004FF6D8034B586800FB04F000F0A0F910BD00BFD080FF1F08B5034B1B7A00FB03F000F095F908BDD080FF1F7222094B1A70202203F5807395
:4006C0001A700622A3F25D131A70472210331A70002203F5A8731A70704700BF8864004010B500F081F904460A4A137843F02003137002F58072137843F01003137003327F
:40070000137843F01003137000F04AF8204600F06FF910BD9864004008B5054B1B7823B9FFF7C8FF0122024B1A70FFF7D9FF08BD6E81FF1F034B1B7813F0040FFAD1024B8A
:40074000187070476B6500404B65004038B5074B1B782BB938BDFFF7EDFF0134A4B201E005460024285D0028F5D138BD6E81FF1F044A137803F07F03C001C0B21843107001
:40078000704700BF10510040044A137803F0BF03800100F0400018431070704710510040054A137843F0020313701032137843F002031370704700BFA2430040024B18781B
:4007C00000F00100704700BF21510040044A137803F0BF03800100F0400018431070704720510040014B1878C009704721510040024A137843F08003137070477A6400406B
:40080000014B1870704700BF0A640040014B1870704700BF4A640040014B1870704700BF2A640040014B1870704700BF8A640040014B1878704700BF6A640040014B1878BC
:40084000704700BF5A64004008B501E0FFF7F6FFFFF7EEFF10F0100FF8D108BD10B5114A137803F0C00343F0090313700E4C237843F0010323706420FFF7C2FF6420FFF754
:40088000C5FF3220FFF7C8FF0020FFF7CBFF00F0ABF8237843F01003237000F0A9F8FFF7D3FF10BD7A6400409A64004008B5054B1B7823B9FFF7D2FF0122024B1A70FFF7C9
:4008C00097FF08BD7081FF1F024A137843F080031370704779640040014B1880704700BF10680040014B1880704700BF90680040014B1880704700BF50680040014B1870E0
:40090000704700BF89640040014B1878704700BF69640040014B188880B27047B068004008B501E0FFF7F6FFFFF7EEFF10F0100FF8D108BD10B5154A137803F0C00343F0D7
:40094000090313701F32137843F001031370104C237843F00103237044F62060FFF7BCFF44F62060FFF7BEFF4FF47A70FFF7C0FF0020FFF7C3FF00F037F8237843F01003FF
:40098000237000F035F8FFF7CBFF10BD796400409964004008B5054B1B7823B9FFF7CAFF0122024B1A70FFF78FFF08BD7181FF1F044A137803F0BF03800100F04000184378
:4009C0001070704730510040014B1878C009704731510040000000000230800803D000BF01380046FCD17047EFF3108072B6704780F31088704700BF81F0004102E000BF6D
:400A000083F0004330B54FEA41044FEA430594EA050F08BF90EA020F1FBF54EA000C55EA020C7FEA645C7FEA655C00F0E2804FEA5454D4EB5555B8BF6D420CDD2C4480EAEB
:400A4000020281EA030382EA000083EA010180EA020281EA0303362D88BF30BD11F0004F4FEA01314FF4801C4CEA113102D0404261EB410113F0004F4FEA03334CEA13337F
:400A800002D0524263EB430394EA050F00F0A780A4F10104D5F1200E0DDB02FA0EFC22FA05F2801841F1000103FA0EF2801843FA05F359410EE0A5F120050EF1200E012AD4
:400AC00003FA0EFC28BF4CF0020C43FA05F3C01851EBE37101F0004507D54FF0000EDCF1000C7EEB00006EEB0101B1F5801F1BD3B1F5001F0CD349085FEA30004FEA3C0C03
:400B000004F101044FEA445212F5800F80F09A80BCF1004F08BF5FEA500C50F1000041EB045141EA050130BD5FEA4C0C404141EB010111F4801FA4F10104E9D191F0000FAC
:400B400004BF01460020B1FA81F308BF2033A3F10B03B3F120020CDA0C3208DD02F1140CC2F10C0201FA0CF021FA02F10CE002F11402D8BFC2F1200C01FA02F120FA0CFC4D
:400B8000DCBF41EA0C019040E41AA2BF01EB0451294330BD6FEA04041F3C1CDA0C340EDC04F11404C4F1200220FA04F001FA02F340EA030021FA04F345EA030130BDC4F1C7
:400BC0000C04C4F1200220FA02F001FA04F340EA0300294630BD21FA04F0294630BD94F0000F83F4801306BF81F480110134013D4EE77FEA645C18BF7FEA655C29D094EA6B
:400C0000050F08BF90EA020F05D054EA000C04BF1946104630BD91EA030F1EBF0021002030BD5FEA545C05D14000494128BF41F0004130BD14F580043CBF01F5801130BD57
:400C400001F0004545F0FE4141F470014FF0000030BD7FEA645C1ABF194610467FEA655C1CBF0B46024650EA013406BF52EA033591EA030F41F4002130BD00BF90F0000FDD
:400C800004BF0021704730B54FF4806404F132044FF000054FF0000150E700BF90F0000F04BF0021704730B54FF4806404F1320410F0004548BF40424FF000013EE700BF95
:400CC00042004FEAE2014FEA31014FEA02701FBF12F07F4393F07F4F81F06051704792F0000F14BF93F07F4F704730B54FF4607401F0004521F0004120E700BF50EA0102C1
:400D000008BF704730B54FF000050AE050EA010208BF704730B511F0004502D5404261EB41014FF4806404F132045FEA915C3FF4DCAE4FF003025FEADC0C18BF03325FEA46
:400D4000DC0C18BF033202EBDC02C2F1200300FA03FC20FA02F001FA03FE40EA0E0021FA02F11444C1E600BF70B54FF0FF0C4CF4E06C1CEA11541DBF1CEA135594EA0C0F90
:400D800095EA0C0F00F0DEF82C4481EA030621EA4C5123EA4C5350EA013518BF52EA033541F4801143F4801338D0A0FB02CE4FF00005E1FB02E506F00042E0FB03E54FF09C
:400DC0000006E1FB03569CF0000F18BF4EF0010EA4F1FF04B6F5007F64F5407404D25FEA4E0E6D4146EB060642EAC62141EA55514FEAC52040EA5E504FEACE2EB4F1FD0C07
:400E000088BFBCF5E06F1ED8BEF1004F08BF5FEA500E50F1000041EB045170BD06F0004646EA010140EA020081EA0301B4EB5C04C2BFD4EB0C0541EA045170BD41F480114E
:400E40004FF0000E013C00F3AB8014F1360FDEBF002001F0004170BDC4F10004203C35DA0C341BDC04F11404C4F1200500FA05F320FA04F001FA05F240EA020001F00042D1
:400E800021F0004110EBD37021FA04F642EB06015EEA430E08BF20EAD37070BDC4F10C04C4F1200500FA04F320FA05F001FA04F240EA020001F0004110EBD37041F1000120
:400EC0005EEA430E08BF20EAD37070BDC4F1200500FA05F24EEA020E20FA04F301FA05F243EA020321FA04F001F0004121FA04F220EA020000EBD3705EEA430E08BF20EADA
:400F0000D37070BD94F0000F0FD101F00046400041EB010111F4801F08BF013CF7D041EA060195F0000F18BF704703F00046520043EB030313F4801F08BF013DF7D043EA08
:400F40000603704794EA0C0F0CEA135518BF95EA0C0F0CD050EA410618BF52EA4306D1D181EA030101F000414FF0000070BD50EA410606BF1046194652EA430619D094EAFA
:400F80000C0F02D150EA013613D195EA0C0F05D152EA03361CBF104619460AD181EA030101F0004141F0FE4141F470014FF0000070BD41F0FE4141F4780170BD70B54FF0CC
:400FC000FF0C4CF4E06C1CEA11541DBF1CEA135594EA0C0F95EA0C0F00F0A7F8A4EB050481EA030E52EA03354FEA013100F088804FEA03334FF0805545EA131343EA12637E
:401000004FEA022245EA111545EA10654FEA00260EF000419D4208BF964244F1FD0404F5407402D25B084FEA3202B61A65EB03055B084FEA32024FF480104FF4002CB6EBDC
:40104000020E75EB030E22BFB61A754640EA0C005B084FEA3202B6EB020E75EB030E22BFB61A754640EA5C005B084FEA3202B6EB020E75EB030E22BFB61A754640EA9C0045
:401080005B084FEA3202B6EB020E75EB030E22BFB61A754640EADC0055EA060E18D04FEA051545EA16754FEA06164FEAC30343EA52734FEAC2025FEA1C1CC0D111F4801F8B
:4010C0000BD141EA00014FF000004FF0004CB6E711F4801F04BF01430020B4F1FD0C88BFBCF5E06F3FF6AFAEB5EB030C04BFB6EB020C5FEA500C50F1000041EB045170BD7A
:401100000EF0004E4EEA113114EB5C04C2BFD4EB0C0541EA045170BD41F480114FF0000E013C90E645EA060E8DE60CEA135594EA0C0F08BF95EA0C0F3FF43BAF94EA0C0F02
:401140000AD150EA01347FF434AF95EA0C0F7FF425AF104619462CE795EA0C0F06D152EA03353FF4FDAE1046194622E750EA410618BF52EA43067FF4C5AE50EA41047FF4F0
:401180000DAF52EA43057FF4EBAE12E74FEA410212F5001215D211D56FF47873B3EB625212D94FEAC12343F0004343EA505311F0004F23FA02F018BF404270474FF00000EC
:4011C000704750EA013005D111F0004008BF6FF0004070474FF00000704700BF014B1868704700BF4081FF1F0E4B70B51E460E4C0025E41AA410A54204D056F82530984773
:401200000135F8E700F018F9084B094C1E46E41AA4100025A54204D056F8253098470135F8E770BD4414000044140000441400004C14000010B5431E0A44914204D011F8AA
:40124000014B03F8014FF8E710BD03460244934202D003F8011BFAE770470000000000005061726B2D612D6C6F742073797374656D20737461727465642E0D0A000000008D
:4012800044726976696E6720666F7277617264732E204C6F6F6B696E6720666F722073706163650D0A0000005061726B696E6720737061636520666F756E640D0A000000BD
:4012C0004E6F7420656E6F7567682073706163650D0A00004F62737461636C6520696E2066726F6E742E20456A656374696E67206472697665722E0D0A000000496E69746B
:40130000696174696E67207061726B696E6773657175656E63650D0A000000005475726E696E6720776865656C732072696768740D0A000044726976696E67206261636B4D
:4013400077617264730D0A005475726E696E6720776865656C73206C6566740D0A00000044726976696E67206261636B776172647320616761696E0D0A0000005061726B5A
:40138000696E6720646F6E650D0A000053657420646972656374696F6E3A20666F7277617264730D0A00000053657420646972656374696F6E3A206261636B776172647313
:4013C0000D0A000053746F700D0A000044656372656173696E672073706565640D0A0000496E6372656173696E672073706565640D0A0000005100401000405100403000EF
:40140000F0510040100000000140001000140140000480180140800300400140000A004C01400002005001402000000000180140CC04004880004300F8B500BFF8BC08BC32
:401440009E4670474D0000000D060000F8B500BFF8BC08BC9E4670472900000070140000C880FF1F80000000300000000000000000000000140000000000E02EC05D0000F0
:401480001800000000366E01000000000000000000000000000000000000000000000000000000000000000036140000000000000000000000000000000000000000000025
:4014C00000000000000000000000000000000000000000000000000000000000000000000000000000000000E080FF1F00000000000000000000000000000000000000006E
:4015000000000000000000000000000000000000000000000000000000000000000000000000000000000000000000000000000000000000000000000000000000000000AB
:40154000000000000000000000000000000000000000000000000000000000000000000000000000000000000000000000000000000000000000000000000000000000006B
:40158000000000000000000000000000000000000000000000000000000000000000000000000000000000000000000000000000000000000000000000000000000000002B
:4015C00000000000000000000000000000000000000000000000000000000000000000000000000000000000000000000000000000000000000000000000000000000000EB
:020000040003F7
:0200000480007A
:400000000452004003640040026500405D0801403C090140600A0140330B01400117014010180140491901404A1A0140421B014002400140014101400142014001430140CF
:4000400004450140034601400347014002480140074D0140045001400151014010041104618064408872890D8A0D88388B0F0014010409060C100D060F09100C12111309A0
:40008000150E1603170119021C091E10210F2410260C2C1C2D092E022F06321F330E37073B804060410249FF4AFF4BFF4DA04F04501856025710580459045A045B045C1172
:4000C0005D105F01604062C06440654066C068C06AC06CC06EC08602870292019B01A101A606AB02B004B302B401B602B701BF04C020C103C5D1C702C813C9FFCAFFCBFF91
:40010000CDAFCE0FCF04D018D280D405D804D904DA04DB04DF01E040E2C0E440E540E6C0E8C0EAC0ECC0EEC00004068109020EA110201744180419221B401E201F04224484
:400140002544271029222E402F803020351036063A043D803E22400441044604482049014D205104520459015A885D806D146F0171027480751076228F40920193019A018F
:400180009B409F04A240A310A504A708B721C094C2B8C4A4CA95CCE4CEB2D026D220D61B020105080A040C0117021A041B0E240228012F0131083204330135043603370206
:4001C00038803E044060410345D24610480B49FF4AFF4BFF4DA04F04501852805405580459045A045B045C215D225F01604062C06440654066C068C06AC06CC06EC0831071
:40020000870188188A058B068E0290189118920393069502970C9D029E069F1CA609AB01AC16AE01AF18B007B11EB301B418B820BA02BB02BE10BF04C002C740C9FFCA0752
:40024000CBFFCC40CD20CEF0CF05D008D804D904DA04DC11DD01DF01E040E1A8E240E32000700340060507040A080E8112141610174019841A011C401D201E802004228C73
:400280002380260127602A802D802F08302032083641370438043D083F2240104520481049014A0850205611571159055B807280A680B280C0CBC292C4A6CA38CCD6CEE239
:4002C000D022D204D60BE280800181018C01910198019B01A301AC01B301B601B908BE40D804D904DC10DF0100810240038005190603080809280C800D200E68118012011B
:400300001540166019801C801D821E4423202508260227042A012C222D103122376538013D043E013FA0458247104C204D404E024F1057085E026448670188408A408B10F6
:400340008D408F04911492019309964099109A209B519D809E809F04A080A140A240A310A606A788C0F9C2F2C4B1CA71CCF5CEF1D0B0D230D680D8B0E280040206040C0456
:400380000E02180124062806300632013B803E04580459045C115F01817082108307840486028710880289038A0C8D1F8E108F609010930F95709610970B99209C089D7F2F
:4003C0009E02A001A140A40EA511A80EA960AC10AD02B010B103B20EB401B57CBB20BE11C036C105C5E0C60BC7C0C826C9FFCAFFCBFFCEF0CF44D00CD401D804D904DA046A
:40040000DB04DC11DD11DF01E6C0EA40EB020108030204100508060107400B080E800FA21114159519051B031C541E20200122802520260127082C802D082E202F023510DA
:40044000368237083C903E0647044D014FA05402550156815C445D21810489088D21919492049308940199109A229B449D099E80A0C0A242A310A402A520A611A740C0F5E0
:40048000C2B2C4F6CAF0CCF0CEF0D040D230D6F0E4013040CC109C409C409C4053805702D404D604A702B380E8018F02A702E40288409C401040700480048840C408DC011D
:4004C000E20100070C0710021C02000308000210042042001000000A3C0600080C2030000C06011830000C01201400083C000000300000010020000000060C083C200001E4
:40050000401E0300000002200000400445060200010E000C11FFFFFF62A0F0410C00000018000400040404041111000100000000000040020010301000101012000000002C
:4005400000000000000000000000000080004080800080000000000000CBCB0000000000814646000600000080404000000000000000000000000000000000000000000092
:40058000000000000000000000000000000000000000000000000000000000000000000000000000000000000000000000000000000000000000000000000000000000003B
:4005C00000000000000000000000000000000000000000000000000000000000000000000000000000000000000000000000000000000000000000000000000000000000FB
:4006000000000000000000000000000000000000000000000000000000000000000000000000000000000000000000000000000000000000000000000000000000000000BA
:40064000000000000000000000000000000000000000000000000000000000000000000000000000000000000000000000000000000000000000000000000000000000007A
:0200000490006A
:0400000000004005B7
:0200000490105A
:04000000BC90ACAF55
:0200000490303A
:02000000693263
:0200000490402A
:4000000000000000000000000000000000000000000000000000000000000000000000000000000000000000000000000000000000000000000000000000000000000000C0
:400040000000000000000000000000000000000000000000000000000000000000000000000000000000000000000000000000000000000000000000000000000000000080
:400080000000000000000000000000000000000000000000000000000000000000000000000000000000000000000000000000000000000000000000000000000000000040
:4000C0000000000000000000000000000000000000000000000000000000000000000000000000000000000000000000000000000000000000000000000000000000000000
:0200000490501A
:0C00000000012E16106900012E1F799BD4
:00000001FF