:400000000080002011000000490300004903000008B5044B1A6803F53F5302331A6000F09BF900BFFA46004010B5054C237833B9044B13B10448AFF300800123237010BD4B
:400040003081FF1F00000000F8060000084B10B51BB108490848AFF300800848036803B910BD074B002BFBD0BDE81040184700BF000000003481FF1FF8060000C880FF1F36
:400080000000000008B562B6054800F0C9FA00F0EFF900F09DFA034800F020FAFEE700BF0D010000FC06000008B54FF47A7000F03BFA08BD08B54FF4FA6000F035FA08BDF1
:4000C00008B540F2DC5000F02FFA08BD08B5322809D033280DD0312810D1FFF7E5FF084800F0FCF908BDFFF7E5FF064800F0F6F908BDFFF7E5FF044800F0F0F908BD00BF82
:4001000020070000300700003C07000038B500F0C3F9044609E000F0B9F9054600F0C8F92846FFF7D3FF013CE4B2002CF3D138BDFEE700BFF0B40022174611E050F827603F
:40014000F3B226F0FF0608E001EB420511F812406D78A5550132013BDBB2002BF4D10137132FEBD9F0BC7047064B1B78DBB203F00701054A11701B09013213704422034B13
:400180001A707047CF0100496E5800407658004008B50A46002100F0A6FA08BD38B51722264B1A801823264A1370332102321180023213700222234B1A7008224FF0402337
:4001C0001A70032103F5007319701F4B1B78DBB21E490B701E4B1A8041F25122023B1A80002419250CE01B4B1B7803F0010343EA440404F003044FF4F07000F02DFA013DCB
:400200000DB1032CEFD115B90320FFF791FF124B4FF480721A8007221A7000220F490A704820023108701A700222033B1A700C4A137843F00303137038BD00BF80400040ED
:40024000824000400043004008010049A146004022420040254200400440004006400040A243004008B500F033FA08BD38B572B6284A137843F00403137000240CE0264D15
:40028000630019194A0011462A44084691882858FFF77EFF0134E4B2072CF0D91F494FF09040FFF747FF1E4A137843F0020313701032137843F0020313701A4C237843F05C
:4002C00040032370A2F58632513A137843F0100313700A2214491548FFF7C4FF082214491448FFF7BFFF144A137843F008031370124D61232B70FFF751FF81232B700122F4
:400300000F4B1A70FFF730FF0E2221460D48FFF7A9FF38BDE8460040500700005000004803500140A043004040040048C05100404C040048125100402243004000480040DC
:4003400004000840B043004008B500F095F903680C2B00D1FEE7FEE708B5104E104D16E029686B68AC68002204E051F8040B43F8040B0432A242F8D1E868002203E000219F
:4003800043F8041B04328242F9D11035013E002EE6D100F077F9FFF775FEFEE701000000A807000008B5104A104B1A60104A136843F40073136000230AE0032B03D80D4A0D
:4003C00052F8231000E00C490C4A42F8231001332F2BF2D90A4B1A780A4B1A70074A0A4B1A60FFF743FF08BD0004FA050CED00E014ED00E000000000490300000080FF1FA5
:40040000BC760040C080FF1F08ED00E07222094B1A70202203F203131A700622A3F5B1731A70472210331A70002203F24F131A70704700BF8864004010B500F015F9044678
:400440000A4A137843F02003137002F20312137843F010031370033A137843F01003137000F0ECF8204600F003F910BD9864004008B5054B1B7823B9FFF7C8FF0122024BFE
:400480001A70FFF7D9FF08BD4C81FF1F014B1878704700BF4B650040044B1B7813F0200F01D0012070470020704700BF6B650040024B1B780BB1024B187070474C81FF1F7C
:4004C00048640040034B1B7813F0040FFAD1024B18707047686500404864004038B5074B1B782BB938BDFFF7EDFF0134A4B201E005460024285D0028F5D138BD4C81FF1F0E
:40050000024A137843F08003137070477A650040014B1880704700BF106A0040014B1880704700BF906A0040014B1880704700BF506A0040014B1870704700BF8A65004060
:40054000014B1878704700BF6A650040014B188880B27047B06A004008B501E0FFF7F6FFFFF7EEFF10F0100FF8D108BD08B5164A137803F0C00343F0090313701E321378D7
:4005800043F0010313700132137843F00103137044F62060FFF7BCFF44F62060FFF7BEFF4FF47A70FFF7C0FF0020FFF7C3FF00F05BF8064A137843F01003137000F058F850
:4005C000FFF7CAFF08BD00BF7A6500409A65004008B5054B1B7823B9FFF7C8FF0122024B1A70FFF78DFF08BD4E81FF1F014B1B681864704708ED00E04001C0B2014B187095
:40060000704700BF00E400E00122014B1A60704700E100E00122014B1A60704780E100E010B50446FFF7F6FF2046FFF7DFFF0720FFF7E2FFFFF7E8FF10BD00BF054A1378C9
:4006400043F0020313701032137843F002031370704700BFA24300400230800803D000BF01380046FCD17047EFF3108072B6704780F31088704700BF014B1868704700BF39
:400680002C81FF1F0E4B70B51E460E4C0025E41AA410A54204D056F8253098470135F8E700F070F8084B094C1E46E41AA4100025A54204D056F8253098470135F8E770BD50
:4006C0009007000090070000900700009807000010B5431E0A44914204D011F8014B03F8014FF8E710BD03460244934202D003F8011BFAE7704700000000000044432D4D49
:400700006F746F722D50574D206170706C69636174696F6E20737461727465640D0A00005475726E2072696768740D0A000000005475726E206C6566740D0A004D696464EB
:400740006C6520706F736974696F6E0D0A000000005100401000205100405000F0510040100000000140001000140140000800400140000A004C0140000200500140200050
:4007800043000000F8B500BFF8BC08BC9E4670474D000000A5030000F8B500BFF8BC08BC9E46704729000000B8070000C880FF1F680000002000000000000000000000002D
:4007C0000000000000000000000000000000000000000000000000000000000080070000000000000000000000000000000000000000000000000000000000000000000072
:4008000000000000000000000000000000000000000000000000000000000000CC80FF1F00000000000000000000000000000000000000000000000000000000000000004E
:400840000000000000000000000000000000000000000000000000000000000000000000000000000000000000000000000000000000000000000000000000000000000078
:400880000000000000000000000000000000000000000000000000000000000000000000000000000000000000000000000000000000000000000000000000000000000038
:4008C00000000000000000000000000000000000000000000000000000000000000000000000000000000000000000000000000000000000000000000000000000000000F8
:4009000000000000000000000000000000000000000000000000000000000000000000000000000000000000000000000000000000000000000000000000000000000000B7
:020000040003F7
:0200000480007A
:400000000352004001640040036500405608014030090140011501406F18014045190140501A01404D1B01400240014001410140014201400143014001480140034901408D
:40004000024C0140094D014004500140015101400940618064408872880F8A0D8B38003F0110040C0508080209180C010D3F111C1321141C162317231833193C1A0C1B02A1
:400080001C1F1D041E20200325272623271828042C082F043210340F351F362C37383AA23B203E0440324101450C46BE480D49FF4AFF4BFF4EF04F44500C56025711580477
:4000C00059045A045B045C115D115F0166C06A406B0288038C0390029B01AA01B301B403B820BE10C002C540C9FFCA07CBFFCC40CD20CEF0CF05D008D804D904DA04DD0168
:40010000DF01E040E1A8E240E3200020018002010422054106200B800D200E2210081480160A170418041C101D211E421F22210426902F2130203540361137043E6A400487
:400140004508460548804F0450085204544056105C106D106E046F01762AC0F3C2E8C4F2CA50CCF4CEF0D074D620E602022006200A130C110D010E0E100C121313021411C5
:4001800016061A101B021E0825022A0C2D023010322033023501360F39083A803E053F104060410449FF4AFF4BFF4DA04F0450185401580459045A045B045C115D105F01EE
:4001C000604062C06440654066C068C06AC06CC06EC082038409854086D087058B088C0C8D0A8E718F2490DC92229410952396AC970C99039B04A010A110A240A414AA2094
:40020000AD23AF04B01FB110B30FB560B6E0B920BA80BB08BF01C060C101C5D0C612C80EC9FFCAFFCBFFCDAFCE0FCF04D018D804D904DA04DC11DF01E040E2C0E440E540A5
:40024000E6C0E8C0EAC0ECC0EEC00008018205800684072009080BC00C900D080F4410801214152019821E401F4420682118272829822F2230103108361139203A043B8026
:400280003C803D804380443245404640480849014C084F205020524053805C225E405F089002911892049304942097829A149B019C809DC09F04A0C0A120A291A322A43044
:4002C000A508C0FDC2FCC44ECA59CCA6CE1ED088D224D6F005010B0212011A061B011F0222022604300431023202340137013E043F0152805405580459045B045F01801899
:400300008104830A8414851C86018818891C8C0A8E2191109618980799089B069E18A019A206A618A701A807B020B103B30CB407B510B618BF01C023C105C204C401C6CEEC
:40034000C80CC9FFCAFFCBFFCC62CDA0CEF0CF41D00CD418D604D804D904DA04DB04DC11DD11DF01E640E702E910EA30EB10ED10EE10EF1204020606071009020A080E267F
:400380001020124014801510170419041A481B101E011F112242242027542F1030603280371139083A103D103E06444045204604474449804A024C01569059055A805E0149
:4003C000658067487102804082408740888089408A028B1090429118920493089420970299019A409B019C809D409E809F04A020A120A291A710C0F0C2EAC47CCA40CCAC69
:40040000CEE6D0F0D210D68BD8B0E004E4043220CC10A620A620A620A6208620A620E6406201D802104070018001820188409E01C408DC01E20100030C0310031C0300039D
:40044000800040808000800000000000404B0B0040000000000000000000000000000000000000000000000000000000000000000000000000000000000000000000000066
:40048000000000000000000000000000000000000000000000000000000000000000000000000000000000000000000000000000000000000000000000000000000000003C
:4004C00000000000000000000000000000000000000000000000000000000000000000000000000000000000000000000000000000000000000000000000000000000000FC
:4005000000000000000000000000000000000000000000000000000000000000000000000000000000000000000000000000000000000000000000000000000000000000BB
:40054000000000000000000000000000000000000000000000000000000000000000000000000000000000000000000000000000000000000000000000000000000000007B
:0200000490006A
:0400000000004005B7
:0200000490105A
:04000000BC90ACAF55
:0200000490303A
:020000000F1FD0
:0200000490402A
:4000000000000000000000000000000000000000000000000000000000000000000000000000000000000000000000000000000000000000000000000000000000000000C0
:400040000000000000000000000000000000000000000000000000000000000000000000000000000000000000000000000000000000000000000000000000000000000080
:400080000000000000000000000000000000000000000000000000000000000000000000000000000000000000000000000000000000000000000000000000000000000040
:4000C0000000000000000000000000000000000000000000000000000000000000000000000000000000000000000000000000000000000000000000000000000000000000
:0200000490501A
:0C00000000012E16106900012E1A1F8846
:00000001FF